:020000040000fa
:080000000001040000000000f3
:020000040000fa
:04000800600800008c
:020000040000fa
:04000c0042050000a9
:020000040000fa
:040010008605000061
:020000040000fa
:04001400c60500001d
:020000040000fa
:0400180006060000d8
:020000040000fa
:04001c006008000078
:020000040000fa
:040020006008000074
:020000040000fa
:04002400460600008c
:020000040000fa
:04002800600800006c
:020000040000fa
:04002c006008000068
:020000040000fa
:040030006008000064
:020000040000fa
:04003400c8010000ff
:020000040000fa
:04003800600800005c
:020000040000fa
:04003c006008000058
:020000040000fa
:040040009402000026
:020000040000fa
:040044006008000050
:020000040000fa
:04004800600800004c
:020000040000fa
:04004c006008000048
:020000040000fa
:040050006008000044
:020000040000fa
:040054006008000040
:020000040000fa
:04005800600800003c
:020000040000fa
:04005c006008000038
:020000040000fa
:040060006008000034
:020000040000fa
:040064006008000030
:020000040000fa
:04006800600800002c
:020000040000fa
:04006c006008000028
:020000040000fa
:040070006008000024
:020000040000fa
:040074006008000020
:020000040000fa
:04007800600800001c
:020000040000fa
:04007c006008000018
:020000040000fa
:040080006008000014
:020000040000fa
:040084006008000010
:020000040000fa
:04008800600800000c
:020000040000fa
:04008c006008000008
:020000040000fa
:040090006008000004
:020000040000fa
:040094006008000000
:020000040000fa
:0400980060080000fc
:020000040000fa
:04009c0060080000f8
:020000040000fa
:0400a00060080000f4
:020000040000fa
:0400a40060080000f0
:020000040000fa
:0400a80060080000ec
:020000040000fa
:0400ac0060080000e8
:020000040000fa
:0400b00060080000e4
:020000040000fa
:0400b40060080000e0
:020000040000fa
:0400b80060080000dc
:020000040000fa
:0400bc0060080000d8
:020000040000fa
:0400c00060080000d4
:020000040000fa
:0400c40060080000d0
:020000040000fa
:0400c80060080000cc
:020000040000fa
:0400cc0060080000c8
:020000040000fa
:0400d00060080000c4
:020000040000fa
:0400d4000205000021
:020000040000fa
:0400d80060080000bc
:020000040000fa
:04010800600800008b
:020000040000fa
:04010c006008000087
:020000040000fa
:040110006008000083
:020000040000fa
:04011400600800007f
:020000040000fa
:04011800600800007b
:020000040000fa
:04011c006008000077
:020000040000fa
:040120006008000073
:020000040000fa
:04012400600800006f
:020000040000fa
:04012800600800006b
:020000040000fa
:04012c006008000067
:020000040000fa
:040130006008000063
:020000040000fa
:04013400600800005f
:020000040000fa
:04013800600800005b
:020000040000fa
:04013c006008000057
:020000040000fa
:040140006008000053
:020000040000fa
:04014400600800004f
:020000040000fa
:04014800600800004b
:020000040000fa
:04014c006008000047
:020000040000fa
:040150006008000043
:020000040000fa
:04015400600800003f
:020000040000fa
:04015800600800003b
:020000040000fa
:04015c006008000037
:020000040000fa
:040160006008000033
:020000040000fa
:04016400600800002f
:020000040000fa
:04016800600800002b
:020000040000fa
:04016c006008000027
:020000040000fa
:040170006008000023
:020000040000fa
:04017400600800001f
:020000040000fa
:04017800600800001b
:020000040000fa
:04017c006008000017
:020000040000fa
:040180006008000013
:020000040000fa
:04018400600800000f
:020000040000fa
:04018800600800000b
:020000040000fa
:04018c006008000007
:020000040000fa
:040190006008000003
:020000040000fa
:0401940060080000ff
:020000040000fa
:0401980060080000fb
:020000040000fa
:04019c0060080000f7
:020000040000fa
:0401a00060080000f3
:020000040000fa
:0401a40060080000ef
:020000040000fa
:0401a80060080000eb
:020000040000fa
:0401ac0060080000e7
:020000040000fa
:0401b00060080000e3
:020000040000fa
:0401b40060080000df
:020000040000fa
:0401b80060080000db
:020000040000fa
:0401bc0060080000d7
:020000040000fa
:0401c00060080000d3
:020000040000fa
:0401c40060080000cf
:020000040000fa
:0401c80060080000cb
:020000040000fa
:0401cc0060080000c7
:020000040000fa
:0401d00060080000c3
:020000040000fa
:0401d40060080000bf
:020000040000fa
:0401d80060080000bb
:020000040000fa
:10020000cf8220000ebf20000e01880000000000f9
:10021000000020000000e000020032000001200089
:100220002002880014000700a70307000000e00078
:1002300003003a00609f2000010020000200370008
:100240000000200001002000810f7000010032003a
:1002500014000700000020000000e000020032004f
:10026000000002000000000044080200000000003e
:100270000040da000000fe004440a9000019200000
:100280000000e0000300320000002000a001880010
:100290004440a800000006008a1f78008b1f7800e9
:1002a0000000060091018800800478000000eb0047
:1002b0001a003700e284440032a0b4009905ba0065
:1002c000e284440032a0b4009906ba00e2844400fb
:1002d00032a0b4000006eb00476fde00fd07b2005d
:1002e000636ce10003003a00ebff07000000eb0045
:1002f0000a003700606ce10004003a00005deb008a
:100300008b05e900fdff3e00040037006168e10055
:10031000010032000086eb000b00070019c7ba008d
:100320001905ba000e04e00003003a000a00e000dc
:10033000e0ff3a0000000600fe07b2009e018800c0
:100340008a047800f5ff3700395dba008b05e900b3
:100350000c003200295dba008b05e900080032006c
:100360000c00e00003003a00e284440032a0b40034
:10037000f5ff370019ddba008b05e900faff3a00f6
:100380008904e800e184440032a0b40000000600c3
:100390003600f800809fbe00829fbe00849fbe0092
:1003a000869fbe002200f8002400f8002600f80016
:1003b0002800f8002a00f8002c00f8000000fa00dd
:1003c000c8c2a80020418000e20f500007003a0098
:1003d00030418000e50f500004003e0030418000b5
:1003e0000000e80030418800cd0207002041800075
:1003f000e50f500032003a00103a800061006000c2
:100400000000e0000b003a00113a800000002700d5
:100410008080600000002700808f500005003a00b7
:10042000100020004041880040e8210010088800aa
:1004300023003700103a8000610060000000e000f7
:1004400016003a00113a800000002700808060000a
:1004500000002100808f500010003a0050418000c1
:10046000e10f500007003a004207a9009000200069
:100470004016880005e1a900c1e1a9004227a900b2
:100480000040fe001000200050418800c842a80033
:100490002628ef00d902070009003700900020004d
:1004a00040168800c862a800c802a9004207a90037
:1004b00005e1a900c1e1a9004227a9000040fe0012
:1004c00020418000ea0f500006003a0040418000c1
:1004d000e10f500003003a0011e1a80005e1a90076
:1004e000c822a800204180000000e80020418800c8
:1004f0008460a9000080fa002c00f9002a00f900ad
:100500002800f9002600f9002400f9002200f90073
:100510004f03be004f02be004f01be004f00be00a1
:100520003600f900004006003600f800809fbe004b
:10053000829fbe00849fbe00869fbe002200f800fe
:100540002400f8002600f8002800f8002a00f8002f
:100550002c00f8000000fa00c8c2a800704080001b
:10056000e10f500002003a00670007000a00370060
:10057000704080000000e00002003a001400070014
:1005800005003700dc22ef00da22ef00c822a900c4
:10059000900207000040fe0084c0a9000080fa001d
:1005a0002c00f9002a00f9002800f9002600f900c3
:1005b0002400f9002200f9004f03be004f02be00e4
:1005c0004f01be004f00be003600f900004006009b
:1005d0000000fa00c802a800a1408000f0e1240059
:1005e000808f500008003e008140800000192000ec
:1005f000808f500004003a00a04080000000e80016
:10060000a04088001d003700d1408000401f20001e
:10061000808f5000140036008140800000192000b7
:10062000808f500010003a001140800030062000fa
:10063000808f500008003600d04080000000e900a4
:10064000d0408800d0408000600888000228ef0079
:10065000c802a80009003700104080000000e80030
:10066000104088000500370081408000c003200052
:10067000808f500001003a008e00070091408000fa
:1006800030062000808f5000010036001228ef0055
:10069000904080000000e00004003a0020002000ac
:1006a000d0168800c802a8001200370090408000d1
:1006b000fe0f500002003a00da22ef000d00370072
:1006c0009140800010032000808f500004003a0009
:1006d00080002000d0168800c802a900050037005d
:1006e0009140800000052000808f500001003a00fa
:1006f000da22ef00904080000000e800904088007f
:100700000080fa00000006000000fa00c0408000ef
:10071000e30f400004003e00c04080006500400040
:10072000c040880028003700a1408000f0c32900a5
:10073000808f500008003e0081408000001920009a
:10074000808f500004003a00a04080000000e800c4
:10075000a04088001c003700d1408000a00f20007e
:10076000808f500013003600814080000019200067
:10077000808f50000f003a001140800030062000aa
:10078000808f500007003600d04080000000e90054
:10079000d0408800d0408000600888000228ef0028
:1007a00009003700104080000000e8001040880079
:1007b0000500370081408000c0032000808f50007a
:1007c00001003a003b00070000408000800040002c
:1007d000608628000080400010007800811720000b
:1007e00000027800810278001301c0000000cc00f4
:1007f000f0408800f040800080007800c040800019
:1008000000027800810278001301c0000000cc00d3
:100810000041880000418000b00e88000041800047
:100820008117200000805000c00e88000140800029
:1008300030032000808f500002003a00c802a80058
:10084000050037000140800070092000808f5000b3
:1008500001003a00c802a900004080000000e80042
:100860000040880001408000700c2000808f500004
:10087000010036000028ef000080fa0000000600aa
:100880000400fa00000f780011079800dc22ef0046
:10089000da22ef00c822a900ce0107001e0078006e
:1008a000704088009e009000814088000080fa001f
:1008b000000006000000fa00b0408000e50f500084
:1008c000010036001628ef0070408000e10f500054
:1008d00024003a00b04080000000e00003003a002d
:1008e000106820006008880041003700b040800098
:1008f000e10f500003003a002068200060088800e3
:100900003b003700b0408000e20f500003003a0087
:10091000506820006008880035003700b040800033
:10092000e30f500003003a00506820006008880080
:100930002f003700b0408000e40f500003003a0061
:10094000206820006008880029003700b04080003f
:10095000e50f500026003a0010682000600888006b
:1009600023003700b04080000000e00003003a00a0
:1009700040d02000600888001d003700b040800093
:10098000e10f500003003a0050d0200060088800ba
:1009900017003700b0408000e20f500003003a001b
:1009a00070d020006008880011003700b04080003f
:1009b000e30f500003003a0070d020006008880068
:1009c0000b003700b0408000e40f500003003a00f5
:1009d00050d020006008880005003700b04080003b
:1009e000e50f500002003a0040d020006008880067
:1009f000b04080000000e800b04088000080fa00ad
:100a0000000006003600f800809fbe00829fbe00f6
:100a1000849fbe00869fbe002200f8002400f800dc
:100a20002600f8002800f8002a00f8002c00f80042
:100a30000000fa00dc22ef00da22ef00c822a90051
:100a4000c8c2a800630107006c0107008100a9006b
:100a50000080fa002c00f9002a00f9002800f900b3
:100a60002600f9002400f9002200f9004f03be001f
:100a70004f02be004f01be004f00be003600f9001d
:100a8000004006003600f800809fbe00829fbe0036
:100a9000849fbe00869fbe002200f8002400f8005c
:100aa0002600f8002800f8002a00f8002c00f800c2
:100ab0000000fa00dc22ef00da22ef00c822a900d1
:100ac000c8c2a800430107004c010700003d2000f8
:100ad000100888008020a9000080fa002c00f9008e
:100ae0002a00f9002800f9002600f9002400f90086
:100af0002200f9004f03be004f02be004f01be00ae
:100b00004f00be003600f900004006003600f80035
:100b1000809fbe00829fbe00849fbe00869fbe0055
:100b20002200f8002400f8002600f8002800f80051
:100b30002a00f8002c00f8000000fa00dc22ef0088
:100b4000da22ef00c822a900c8c2a80021010700cc
:100b50002a0107008060a9000080fa002c00f9003b
:100b60002a00f9002800f9002600f9002400f90005
:100b70002200f9004f03be004f02be004f01be002d
:100b80004f00be003600f900004006003600f800b5
:100b9000809fbe00829fbe00849fbe00869fbe00d5
:100ba0002200f8002400f8002600f8002800f800d1
:100bb0002a00f8002c00f8000000fa00dc22ef0008
:100bc000da22ef00c822a900c8c2a800010107006c
:100bd0000a0107008040a9000080fa002c00f900fb
:100be0002a00f9002800f9002600f9002400f90085
:100bf0002200f9004f03be004f02be004f01be00ad
:100c00004f00be003600f900004006003600f80034
:100c1000809fbe00829fbe00849fbe00869fbe0054
:100c20002200f8002400f8002600f8002800f80050
:100c30002a00f8002c00f8000000fa00dc22ef0087
:100c4000da22ef00c822a900c8c2a800e10007000c
:100c5000ea0007008080a9000080fa002c00f9005b
:100c60002a00f9002800f9002600f9002400f90004
:100c70002200f9004f03be004f02be004f01be002c
:100c80004f00be003600f900004006003600f800b4
:100c9000809fbe00829fbe00849fbe00869fbe00d4
:100ca0002200f8002400f8002600f8002800f800d0
:100cb0002a00f8002c00f8000000fa00dc22ef0007
:100cc000da22ef00c822a900c8c2a800c1000700ac
:100cd0000080fa002c00f9002a00f9002800f90031
:100ce0002600f9002400f9002200f9004f03be009d
:100cf0004f02be004f01be004f00be003600f9009b
:100d0000004006000000fa00c622ef00ca22ef00f1
:100d100070408000e10f500003003a000080eb00bb
:100d2000c016880002003700d822ef00dc22ef0056
:100d3000e0fb2f00f0168800e222ef0030ff2f00ca
:100d400090168800cc22ef00d022ef004580a8004a
:100d50004400a80044e0a80044c0a80044a0a800a3
:100d60004420a80020002000000e8800c221ef00cf
:100d7000800c2000200e8800c621ef00704080000b
:100d8000e10f500003003a00f00f2000400e8800f1
:100d900001003700c821ef00ca21ef00cc21ef008d
:100da000d021ef0000f02f00a00e8800d621ef0028
:100db000d821ef00da21ef000e22ef000c22ef0025
:100dc0000d42a8001822ef0019e2a8001622ef0039
:100dd00040e82100100888000021ef000421ef0006
:100de0002108800000032000010070002008880016
:100df0000621ef001021ef00a00e2e0070088800e1
:100e00000a21ef001221ef0091088000000320006a
:100e10000100700090088800402e20000015880016
:100e20000041200010158800f0f0200020158800f7
:100e3000a622ef00f0f72f0040158800f0082000f0
:100e400050158800b1048000f08f2f0000806000f2
:100e50000080a000b0048800e104800080ff2f0023
:100e6000008060000010a000e0048800a104800061
:100e7000f0ff280080806000000023000100700067
:100e8000a0048800c1048000f0ff280000806000fa
:100e900000e0a000c0048800a104800080ff2f00b3
:100ea000008060005000b300a0048800c1048000ee
:100eb000f0f82f0080806000000620000100700024
:100ec000c0048800f10480000000270001007000c9
:100ed000f00488008420ef008620ef008820ef00d7
:100ee000ff3ffc008c20ef008e20ef009020ef00f1
:100ef0008c60a8008ee0a9008cc0a8008200a90028
:100f00008240a9005220ef0070408000e10f5000a5
:100f100001003a00c1e1a8000080fa0000000600cc
:100f20000000fa00113a8000000027008080600075
:100f300000002700808f50000d00320080c7b300f2
:100f400043e7b700a0c9b30043e7b700113a8000f8
:100f50000070200001007000103a880060c4b300e7
:100f600042e7b70070c5b30042e7b7004207a800e8
:100f70000080fa00000006000000fa00113a80002c
:100f8000000027008080600000002100808f50005a
:100f90000e00320080c7b30043e7b700a0c9b3001a
:100fa00043e7b700113a8000f08f2f000080600007
:100fb0000080a000103a880060c4b30042e7b70088
:100fc00070c5b30042e7b7004207a8000080fa00ee
:100fd000000006000000fa00d621ef00d821ef0043
:100fe000da21ef001828ef0011e1a9000621ef0037
:100ff00084c0a9000080fa00000006000000fa008a
:101000008140800020032000808f50000d003a00b6
:1010100070408000e10f500005003a00007d200084
:1010200060088800007d2000d04088001100370053
:1010300000fa20006008880000fa2000d0408800f4
:101040000c00370070408000e10f500005003a00ae
:10105000206820006008880020682000d0408800b8
:101060000400370050d020006008880050d02000d5
:10107000d04088000021ef002428ef0005e1a800ff
:101080000080fa00000006000000fa00d621ef0000
:10109000d821ef00da21ef00100020007040880016
:1010a00018ff07007040800001192000f4fd0700c0
:1010b000d2ff0700c8c2a9000140fe00fdff3700b3
:0c10c0000040da000000fe000000050007
:020000040000fa
:1010cc000080000005840000098800000b8c0000e3
:1010dc000a90000005940000fc970000ec9b0000b7
:1010ec00d49f0000b5a300008da700005bab0000ef
:1010fc001eaf0000d5b200007fb600001cba000085
:10110c00a9bd000028c1000095c40000f2c7000072
:10111c003ccb000073ce000096d10000a5d400009b
:10112c009ed7000082da00004edd000003e00000d4
:10113c009fe2000023e500008de70000dde90000e0
:10114c0012ec00002cee00002af000000cf2000063
:10115c00d0f3000078f5000002f700006ef80000f4
:10116c00bbf90000eafa0000fafb0000eafc000000
:10117c00bbfd00006cfe0000fdfe00006eff0000d9
:10118c00beff0000efff0000ffff0000efff0000bc
:10119c00beff00006eff0000fdfe00006cfe0000b4
:1011ac00bbfd0000eafc0000fafb0000eafa0000bc
:1011bc00bbf900006ef8000002f7000078f50000a3
:1011cc00d0f300000cf200002af000002cee00001e
:1011dc0012ec0000dde900008de7000023e50000c3
:1011ec009fe2000003e000004edd000082da000008
:1011fc009ed70000a5d4000096d1000073ce00004d
:10120c003ccb0000f2c7000095c4000028c10000d0
:10121c00a9bd00001cba00007fb60000d5b20000ca
:10122c001eaf00005bab00008da70000b5a3000053
:10123c00d49f0000ec9b0000fc970000059400007c
:10124c000a9000000b8c0000098800000584000047
:10125c0000800000fa7b0000f6770000f4730000b9
:10126c00f56f0000fa6b00000368000013640000c7
:10127c002b6000004a5c000072580000a45400006f
:10128c00e15000002a4d000080490000e3450000b9
:10129c0056420000d73e00006a3b00000d380000ab
:1012ac00c33400008c310000692e00005a2b000062
:1012bc00612800007d250000b1220000fc1f000009
:1012cc00601d0000dc1a00007218000022160000dd
:1012dc00ed130000d3110000d50f0000f30d00003a
:1012ec002f0c0000870a0000fd0800009107000089
:1012fc00440600001505000005040000150300005d
:10130c004402000093010000020100009100000063
:10131c004100000010000000000000001000000060
:10132c004100000091000000020100009301000048
:10133c004402000015030000050400001505000020
:10134c004406000091070000fd080000870a000019
:10135c002f0c0000f30d0000d50f0000d31100007e
:10136c00ed1300002216000072180000dc1a0000b9
:10137c00601d0000fc1f0000b12200007d25000054
:10138c00612800005a2b0000692e00008c310000ef
:10139c00c33400000d3800006a3b0000d73e00004b
:1013ac0056420000e3450000804900002a4d000031
:1013bc00e1500000a4540000725800004a5c000088
:1013cc002b6000001364000003680000fa6b00003f
:1013dc00f56f0000f4730000f6770000fa7b000054
:020000040000fa
:1013ec00000800002c0000000000000000000000bd
:020000040000fa
:0200000401f009
:04000000ee3f0000cf
:020000040000fa
:0200000401f009
:04000400ff7f00007a
:020000040000fa
:0200000401f009
:04000800efff000006
:020000040000fa
:0200000401f009
:04001400ffff0000ea
:020000040000fa
:0200000401f009
:04001800ffff0000e6
:00000001FF
